{
  "contractName": "DataStorage",
  "abi": [
    {
      "anonymous": false,
      "inputs": [
        {
          "indexed": true,
          "internalType": "uint256",
          "name": "id",
          "type": "uint256"
        },
        {
          "indexed": false,
          "internalType": "string",
          "name": "hashString",
          "type": "string"
        }
      ],
      "name": "DataUpdate",
      "type": "event"
    },
    {
      "inputs": [
        {
          "internalType": "uint256",
          "name": "id",
          "type": "uint256"
        },
        {
          "internalType": "string",
          "name": "hashString",
          "type": "string"
        }
      ],
      "name": "addOrUpdateData",
      "outputs": [],
      "stateMutability": "nonpayable",
      "type": "function"
    },
    {
      "inputs": [
        {
          "internalType": "uint256",
          "name": "id",
          "type": "uint256"
        }
      ],
      "name": "getData",
      "outputs": [
        {
          "internalType": "string",
          "name": "",
          "type": "string"
        }
      ],
      "stateMutability": "view",
      "type": "function",
      "constant": true
    },
    {
      "inputs": [],
      "name": "getAllData",
      "outputs": [
        {
          "internalType": "uint256[]",
          "name": "",
          "type": "uint256[]"
        },
        {
          "internalType": "string[]",
          "name": "",
          "type": "string[]"
        }
      ],
      "stateMutability": "view",
      "type": "function",
      "constant": true
    }
  ],
  "bytecode": "0x608060405234801561001057600080fd5b50610c29806100206000396000f3fe608060405234801561001057600080fd5b50600436106100415760003560e01c80630178fe3f1461004657806321ff6d3b146100765780632d10fa2814610092575b600080fd5b610060600480360381019061005b91906103fe565b6100b1565b60405161006d91906104bb565b60405180910390f35b610090600480360381019061008b9190610612565b610155565b005b61009a610201565b6040516100a8929190610838565b60405180910390f35b606060008083815260200190815260200160002080546100d09061089e565b80601f01602080910402602001604051908101604052809291908181526020018280546100fc9061089e565b80156101495780601f1061011e57610100808354040283529160200191610149565b820191906000526020600020905b81548152906001019060200180831161012c57829003601f168201915b50505050509050919050565b600080600084815260200190815260200160002080546101749061089e565b9050036101a55760018290806001815401808255809150506001900390600052602060002001600090919091909150555b8060008084815260200190815260200160002090816101c49190610a7b565b50817f2d8d35dbc7b8b6d56dd3ef992a42dc12166298565deb358e580324f4459349e2826040516101f591906104bb565b60405180910390a25050565b606080600060018054905067ffffffffffffffff811115610225576102246104e7565b5b60405190808252806020026020018201604052801561025857816020015b60608152602001906001900390816102435790505b50905060005b600180549050811015610355576000806001838154811061028257610281610b4d565b5b9060005260206000200154815260200190815260200160002080546102a69061089e565b80601f01602080910402602001604051908101604052809291908181526020018280546102d29061089e565b801561031f5780601f106102f45761010080835404028352916020019161031f565b820191906000526020600020905b81548152906001019060200180831161030257829003601f168201915b505050505082828151811061033757610336610b4d565b5b6020026020010181905250808061034d90610bab565b91505061025e565b50600181818054806020026020016040519081016040528092919081815260200182805480156103a457602002820191906000526020600020905b815481526020019060010190808311610390575b5050505050915092509250509091565b6000604051905090565b600080fd5b600080fd5b6000819050919050565b6103db816103c8565b81146103e657600080fd5b50565b6000813590506103f8816103d2565b92915050565b600060208284031215610414576104136103be565b5b6000610422848285016103e9565b91505092915050565b600081519050919050565b600082825260208201905092915050565b60005b8381101561046557808201518184015260208101905061044a565b60008484015250505050565b6000601f19601f8301169050919050565b600061048d8261042b565b6104978185610436565b93506104a7818560208601610447565b6104b081610471565b840191505092915050565b600060208201905081810360008301526104d58184610482565b905092915050565b600080fd5b600080fd5b7f4e487b7100000000000000000000000000000000000000000000000000000000600052604160045260246000fd5b61051f82610471565b810181811067ffffffffffffffff8211171561053e5761053d6104e7565b5b80604052505050565b60006105516103b4565b905061055d8282610516565b919050565b600067ffffffffffffffff82111561057d5761057c6104e7565b5b61058682610471565b9050602081019050919050565b82818337600083830152505050565b60006105b56105b084610562565b610547565b9050828152602081018484840111156105d1576105d06104e2565b5b6105dc848285610593565b509392505050565b600082601f8301126105f9576105f86104dd565b5b81356106098482602086016105a2565b91505092915050565b60008060408385031215610629576106286103be565b5b6000610637858286016103e9565b925050602083013567ffffffffffffffff811115610658576106576103c3565b5b610664858286016105e4565b9150509250929050565b600081519050919050565b600082825260208201905092915050565b6000819050602082019050919050565b6106a3816103c8565b82525050565b60006106b5838361069a565b60208301905092915050565b6000602082019050919050565b60006106d98261066e565b6106e38185610679565b93506106ee8361068a565b8060005b8381101561071f57815161070688826106a9565b9750610711836106c1565b9250506001810190506106f2565b5085935050505092915050565b600081519050919050565b600082825260208201905092915050565b6000819050602082019050919050565b600082825260208201905092915050565b60006107748261042b565b61077e8185610758565b935061078e818560208601610447565b61079781610471565b840191505092915050565b60006107ae8383610769565b905092915050565b6000602082019050919050565b60006107ce8261072c565b6107d88185610737565b9350836020820285016107ea85610748565b8060005b85811015610826578484038952815161080785826107a2565b9450610812836107b6565b925060208a019950506001810190506107ee565b50829750879550505050505092915050565b6000604082019050818103600083015261085281856106ce565b9050818103602083015261086681846107c3565b90509392505050565b7f4e487b7100000000000000000000000000000000000000000000000000000000600052602260045260246000fd5b600060028204905060018216806108b657607f821691505b6020821081036108c9576108c861086f565b5b50919050565b60008190508160005260206000209050919050565b60006020601f8301049050919050565b600082821b905092915050565b6000600883026109317fffffffffffffffffffffffffffffffffffffffffffffffffffffffffffffffff826108f4565b61093b86836108f4565b95508019841693508086168417925050509392505050565b6000819050919050565b600061097861097361096e846103c8565b610953565b6103c8565b9050919050565b6000819050919050565b6109928361095d565b6109a661099e8261097f565b848454610901565b825550505050565b600090565b6109bb6109ae565b6109c6818484610989565b505050565b5b818110156109ea576109df6000826109b3565b6001810190506109cc565b5050565b601f821115610a2f57610a00816108cf565b610a09846108e4565b81016020851015610a18578190505b610a2c610a24856108e4565b8301826109cb565b50505b505050565b600082821c905092915050565b6000610a5260001984600802610a34565b1980831691505092915050565b6000610a6b8383610a41565b9150826002028217905092915050565b610a848261042b565b67ffffffffffffffff811115610a9d57610a9c6104e7565b5b610aa7825461089e565b610ab28282856109ee565b600060209050601f831160018114610ae55760008415610ad3578287015190505b610add8582610a5f565b865550610b45565b601f198416610af3866108cf565b60005b82811015610b1b57848901518255600182019150602085019450602081019050610af6565b86831015610b385784890151610b34601f891682610a41565b8355505b6001600288020188555050505b505050505050565b7f4e487b7100000000000000000000000000000000000000000000000000000000600052603260045260246000fd5b7f4e487b7100000000000000000000000000000000000000000000000000000000600052601160045260246000fd5b6000610bb6826103c8565b91507fffffffffffffffffffffffffffffffffffffffffffffffffffffffffffffffff8203610be857610be7610b7c565b5b60018201905091905056fea2646970667358221220c1a3e59ae73a9a5c088f94f6d14566ea7ab111a89c20a7cc5179114e05b50c9464736f6c63430008130033",
  "immutableReferences": {},
  "source": "// SPDX-License-Identifier: MIT\r\npragma solidity ^0.8.0;\r\n\r\ncontract DataStorage {\r\n    struct Data {\r\n        uint256 id;\r\n        string hashString;\r\n    }\r\n    \r\n    mapping(uint256 => string) private dataStorage;\r\n    uint256[] private ids;\r\n    \r\n    event DataUpdate(uint256 indexed id, string hashString);\r\n    \r\n    function addOrUpdateData(uint256 id, string memory hashString) public {\r\n        if (bytes(dataStorage[id]).length == 0) {\r\n            ids.push(id);\r\n        }\r\n        dataStorage[id] = hashString;\r\n        emit DataUpdate(id, hashString);\r\n    }\r\n    \r\n    function getData(uint256 id) public view returns (string memory) {\r\n        return dataStorage[id];\r\n    }\r\n    \r\n    function getAllData() public view returns (uint256[] memory, string[] memory) {\r\n        string[] memory hashStrings = new string[](ids.length);\r\n        for (uint256 i = 0; i < ids.length; i++) {\r\n            hashStrings[i] = dataStorage[ids[i]];\r\n        }\r\n        return (ids, hashStrings);\r\n    }\r\n}",
  "sourcePath": "D:\\final-year-pro-soli\\contracts\\DataStorage.sol",
  "compiler": {
    "name": "solc",
    "version": "0.8.19+commit.7dd6d404.Emscripten.clang"
  },
  "schemaVersion": "3.4.16",
  "updatedAt": "2025-03-11T05:53:27.599Z",
  "networkType": "ethereum",
  "devdoc": {
    "kind": "dev",
    "methods": {},
    "version": 1
  },
  "userdoc": {
    "kind": "user",
    "methods": {},
    "version": 1
  }
}