{
  "contractName": "DataStorage",
  "abi": [
    {
      "anonymous": false,
      "inputs": [
        {
          "indexed": true,
          "internalType": "uint256",
          "name": "id",
          "type": "uint256"
        },
        {
          "indexed": false,
          "internalType": "string",
          "name": "hashString",
          "type": "string"
        }
      ],
      "name": "DataUpdate",
      "type": "event"
    },
    {
      "inputs": [
        {
          "internalType": "uint256",
          "name": "id",
          "type": "uint256"
        },
        {
          "internalType": "string",
          "name": "hashString",
          "type": "string"
        }
      ],
      "name": "addOrUpdateData",
      "outputs": [],
      "stateMutability": "nonpayable",
      "type": "function"
    },
    {
      "inputs": [
        {
          "internalType": "uint256",
          "name": "id",
          "type": "uint256"
        }
      ],
      "name": "getData",
      "outputs": [
        {
          "internalType": "string",
          "name": "",
          "type": "string"
        }
      ],
      "stateMutability": "view",
      "type": "function",
      "constant": true
    }
  ],
  "bytecode": "0x608060405234801561001057600080fd5b50610869806100206000396000f3fe608060405234801561001057600080fd5b50600436106100365760003560e01c80630178fe3f1461003b57806321ff6d3b1461006b575b600080fd5b61005560048036038101906100509190610279565b610087565b6040516100629190610336565b60405180910390f35b6100856004803603810190610080919061048d565b610190565b005b606060008083815260200190815260200160002060010160009054906101000a900460ff166100eb576040517f08c379a00000000000000000000000000000000000000000000000000000000081526004016100e290610535565b60405180910390fd5b600080838152602001908152602001600020600001805461010b90610584565b80601f016020809104026020016040519081016040528092919081815260200182805461013790610584565b80156101845780601f1061015957610100808354040283529160200191610184565b820191906000526020600020905b81548152906001019060200180831161016757829003601f168201915b50505050509050919050565b60405180604001604052808281526020016001151581525060008084815260200190815260200160002060008201518160000190816101cf9190610761565b5060208201518160010160006101000a81548160ff021916908315150217905550905050817f2d8d35dbc7b8b6d56dd3ef992a42dc12166298565deb358e580324f4459349e2826040516102239190610336565b60405180910390a25050565b6000604051905090565b600080fd5b600080fd5b6000819050919050565b61025681610243565b811461026157600080fd5b50565b6000813590506102738161024d565b92915050565b60006020828403121561028f5761028e610239565b5b600061029d84828501610264565b91505092915050565b600081519050919050565b600082825260208201905092915050565b60005b838110156102e05780820151818401526020810190506102c5565b60008484015250505050565b6000601f19601f8301169050919050565b6000610308826102a6565b61031281856102b1565b93506103228185602086016102c2565b61032b816102ec565b840191505092915050565b6000602082019050818103600083015261035081846102fd565b905092915050565b600080fd5b600080fd5b7f4e487b7100000000000000000000000000000000000000000000000000000000600052604160045260246000fd5b61039a826102ec565b810181811067ffffffffffffffff821117156103b9576103b8610362565b5b80604052505050565b60006103cc61022f565b90506103d88282610391565b919050565b600067ffffffffffffffff8211156103f8576103f7610362565b5b610401826102ec565b9050602081019050919050565b82818337600083830152505050565b600061043061042b846103dd565b6103c2565b90508281526020810184848401111561044c5761044b61035d565b5b61045784828561040e565b509392505050565b600082601f83011261047457610473610358565b5b813561048484826020860161041d565b91505092915050565b600080604083850312156104a4576104a3610239565b5b60006104b285828601610264565b925050602083013567ffffffffffffffff8111156104d3576104d261023e565b5b6104df8582860161045f565b9150509250929050565b7f44617461206e6f7420666f756e64000000000000000000000000000000000000600082015250565b600061051f600e836102b1565b915061052a826104e9565b602082019050919050565b6000602082019050818103600083015261054e81610512565b9050919050565b7f4e487b7100000000000000000000000000000000000000000000000000000000600052602260045260246000fd5b6000600282049050600182168061059c57607f821691505b6020821081036105af576105ae610555565b5b50919050565b60008190508160005260206000209050919050565b60006020601f8301049050919050565b600082821b905092915050565b6000600883026106177fffffffffffffffffffffffffffffffffffffffffffffffffffffffffffffffff826105da565b61062186836105da565b95508019841693508086168417925050509392505050565b6000819050919050565b600061065e61065961065484610243565b610639565b610243565b9050919050565b6000819050919050565b61067883610643565b61068c61068482610665565b8484546105e7565b825550505050565b600090565b6106a1610694565b6106ac81848461066f565b505050565b5b818110156106d0576106c5600082610699565b6001810190506106b2565b5050565b601f821115610715576106e6816105b5565b6106ef846105ca565b810160208510156106fe578190505b61071261070a856105ca565b8301826106b1565b50505b505050565b600082821c905092915050565b60006107386000198460080261071a565b1980831691505092915050565b60006107518383610727565b9150826002028217905092915050565b61076a826102a6565b67ffffffffffffffff81111561078357610782610362565b5b61078d8254610584565b6107988282856106d4565b600060209050601f8311600181146107cb57600084156107b9578287015190505b6107c38582610745565b86555061082b565b601f1984166107d9866105b5565b60005b82811015610801578489015182556001820191506020850194506020810190506107dc565b8683101561081e578489015161081a601f891682610727565b8355505b6001600288020188555050505b50505050505056fea264697066735822122030c1c26d03fa652447172bb0010207b5b406c5304aaddae7f324cec8b1316aff64736f6c63430008130033",
  "immutableReferences": {},
  "source": "// SPDX-License-Identifier: MIT\r\npragma solidity ^0.8.19;\r\n\r\ncontract DataStorage {\r\n    struct Data {\r\n        string hashString;\r\n        bool exists;\r\n    }\r\n\r\n    mapping (uint256 => Data) private dataStore;\r\n\r\n    event DataUpdate(uint256 indexed id, string hashString);\r\n\r\n\r\n    function addOrUpdateData(uint256 id, string memory hashString) public {\r\n        dataStore[id] = Data(hashString, true);\r\n        emit DataUpdate(id, hashString);\r\n    }\r\n\r\n    function getData(uint256 id) public view returns (string memory) {\r\n        require(dataStore[id].exists, \"Data not found\");\r\n        return dataStore[id].hashString;\r\n    }\r\n}",
  "sourcePath": "D:\\final-year-pro-soli\\contracts\\DataStorage.sol",
  "compiler": {
    "name": "solc",
    "version": "0.8.19+commit.7dd6d404.Emscripten.clang"
  },
  "schemaVersion": "3.4.16",
  "updatedAt": "2025-01-28T16:23:15.408Z",
  "networkType": "ethereum",
  "devdoc": {
    "kind": "dev",
    "methods": {},
    "version": 1
  },
  "userdoc": {
    "kind": "user",
    "methods": {},
    "version": 1
  }
}