{
  "contractName": "DataStorage",
  "abi": [
    {
      "anonymous": false,
      "inputs": [
        {
          "indexed": true,
          "internalType": "uint256",
          "name": "id",
          "type": "uint256"
        },
        {
          "indexed": false,
          "internalType": "string",
          "name": "hashString",
          "type": "string"
        }
      ],
      "name": "DataUpdate",
      "type": "event"
    },
    {
      "inputs": [
        {
          "internalType": "uint256",
          "name": "id",
          "type": "uint256"
        },
        {
          "internalType": "string",
          "name": "hashString",
          "type": "string"
        }
      ],
      "name": "addOrUpdateData",
      "outputs": [],
      "stateMutability": "nonpayable",
      "type": "function"
    },
    {
      "inputs": [
        {
          "internalType": "uint256",
          "name": "id",
          "type": "uint256"
        }
      ],
      "name": "getData",
      "outputs": [
        {
          "internalType": "string",
          "name": "",
          "type": "string"
        }
      ],
      "stateMutability": "view",
      "type": "function",
      "constant": true
    },
    {
      "inputs": [],
      "name": "getAllData",
      "outputs": [
        {
          "internalType": "uint256[]",
          "name": "",
          "type": "uint256[]"
        },
        {
          "internalType": "string[]",
          "name": "",
          "type": "string[]"
        }
      ],
      "stateMutability": "view",
      "type": "function",
      "constant": true
    }
  ],
  "bytecode": "0x608060405234801561001057600080fd5b50610d42806100206000396000f3fe608060405234801561001057600080fd5b50600436106100415760003560e01c80630178fe3f1461004657806321ff6d3b146100765780632d10fa2814610092575b600080fd5b610060600480360381019061005b91906104ab565b6100b1565b60405161006d9190610568565b60405180910390f35b610090600480360381019061008b91906106bf565b6101ba565b005b61009a6102aa565b6040516100a89291906108e5565b60405180910390f35b606060008083815260200190815260200160002060010160009054906101000a900460ff16610115576040517f08c379a000000000000000000000000000000000000000000000000000000000815260040161010c90610968565b60405180910390fd5b6000808381526020019081526020016000206000018054610135906109b7565b80601f0160208091040260200160405190810160405280929190818152602001828054610161906109b7565b80156101ae5780601f10610183576101008083540402835291602001916101ae565b820191906000526020600020905b81548152906001019060200180831161019157829003601f168201915b50505050509050919050565b60008083815260200190815260200160002060010160009054906101000a900460ff1661020b5760018290806001815401808255809150506001900390600052602060002001600090919091909150555b604051806040016040528082815260200160011515815250600080848152602001908152602001600020600082015181600001908161024a9190610b94565b5060208201518160010160006101000a81548160ff021916908315150217905550905050817f2d8d35dbc7b8b6d56dd3ef992a42dc12166298565deb358e580324f4459349e28260405161029e9190610568565b60405180910390a25050565b6060806000600180549050905060008167ffffffffffffffff8111156102d3576102d2610594565b5b60405190808252806020026020018201604052801561030657816020015b60608152602001906001900390816102f15790505b50905060005b82811015610401576000806001838154811061032b5761032a610c66565b5b906000526020600020015481526020019081526020016000206000018054610352906109b7565b80601f016020809104026020016040519081016040528092919081815260200182805461037e906109b7565b80156103cb5780601f106103a0576101008083540402835291602001916103cb565b820191906000526020600020905b8154815290600101906020018083116103ae57829003601f168201915b50505050508282815181106103e3576103e2610c66565b5b602002602001018190525080806103f990610cc4565b91505061030c565b506001818180548060200260200160405190810160405280929190818152602001828054801561045057602002820191906000526020600020905b81548152602001906001019080831161043c575b505050505091509350935050509091565b6000604051905090565b600080fd5b600080fd5b6000819050919050565b61048881610475565b811461049357600080fd5b50565b6000813590506104a58161047f565b92915050565b6000602082840312156104c1576104c061046b565b5b60006104cf84828501610496565b91505092915050565b600081519050919050565b600082825260208201905092915050565b60005b838110156105125780820151818401526020810190506104f7565b60008484015250505050565b6000601f19601f8301169050919050565b600061053a826104d8565b61054481856104e3565b93506105548185602086016104f4565b61055d8161051e565b840191505092915050565b60006020820190508181036000830152610582818461052f565b905092915050565b600080fd5b600080fd5b7f4e487b7100000000000000000000000000000000000000000000000000000000600052604160045260246000fd5b6105cc8261051e565b810181811067ffffffffffffffff821117156105eb576105ea610594565b5b80604052505050565b60006105fe610461565b905061060a82826105c3565b919050565b600067ffffffffffffffff82111561062a57610629610594565b5b6106338261051e565b9050602081019050919050565b82818337600083830152505050565b600061066261065d8461060f565b6105f4565b90508281526020810184848401111561067e5761067d61058f565b5b610689848285610640565b509392505050565b600082601f8301126106a6576106a561058a565b5b81356106b684826020860161064f565b91505092915050565b600080604083850312156106d6576106d561046b565b5b60006106e485828601610496565b925050602083013567ffffffffffffffff81111561070557610704610470565b5b61071185828601610691565b9150509250929050565b600081519050919050565b600082825260208201905092915050565b6000819050602082019050919050565b61075081610475565b82525050565b60006107628383610747565b60208301905092915050565b6000602082019050919050565b60006107868261071b565b6107908185610726565b935061079b83610737565b8060005b838110156107cc5781516107b38882610756565b97506107be8361076e565b92505060018101905061079f565b5085935050505092915050565b600081519050919050565b600082825260208201905092915050565b6000819050602082019050919050565b600082825260208201905092915050565b6000610821826104d8565b61082b8185610805565b935061083b8185602086016104f4565b6108448161051e565b840191505092915050565b600061085b8383610816565b905092915050565b6000602082019050919050565b600061087b826107d9565b61088581856107e4565b935083602082028501610897856107f5565b8060005b858110156108d357848403895281516108b4858261084f565b94506108bf83610863565b925060208a0199505060018101905061089b565b50829750879550505050505092915050565b600060408201905081810360008301526108ff818561077b565b905081810360208301526109138184610870565b90509392505050565b7f44617461206e6f7420666f756e64000000000000000000000000000000000000600082015250565b6000610952600e836104e3565b915061095d8261091c565b602082019050919050565b6000602082019050818103600083015261098181610945565b9050919050565b7f4e487b7100000000000000000000000000000000000000000000000000000000600052602260045260246000fd5b600060028204905060018216806109cf57607f821691505b6020821081036109e2576109e1610988565b5b50919050565b60008190508160005260206000209050919050565b60006020601f8301049050919050565b600082821b905092915050565b600060088302610a4a7fffffffffffffffffffffffffffffffffffffffffffffffffffffffffffffffff82610a0d565b610a548683610a0d565b95508019841693508086168417925050509392505050565b6000819050919050565b6000610a91610a8c610a8784610475565b610a6c565b610475565b9050919050565b6000819050919050565b610aab83610a76565b610abf610ab782610a98565b848454610a1a565b825550505050565b600090565b610ad4610ac7565b610adf818484610aa2565b505050565b5b81811015610b0357610af8600082610acc565b600181019050610ae5565b5050565b601f821115610b4857610b19816109e8565b610b22846109fd565b81016020851015610b31578190505b610b45610b3d856109fd565b830182610ae4565b50505b505050565b600082821c905092915050565b6000610b6b60001984600802610b4d565b1980831691505092915050565b6000610b848383610b5a565b9150826002028217905092915050565b610b9d826104d8565b67ffffffffffffffff811115610bb657610bb5610594565b5b610bc082546109b7565b610bcb828285610b07565b600060209050601f831160018114610bfe5760008415610bec578287015190505b610bf68582610b78565b865550610c5e565b601f198416610c0c866109e8565b60005b82811015610c3457848901518255600182019150602085019450602081019050610c0f565b86831015610c515784890151610c4d601f891682610b5a565b8355505b6001600288020188555050505b505050505050565b7f4e487b7100000000000000000000000000000000000000000000000000000000600052603260045260246000fd5b7f4e487b7100000000000000000000000000000000000000000000000000000000600052601160045260246000fd5b6000610ccf82610475565b91507fffffffffffffffffffffffffffffffffffffffffffffffffffffffffffffffff8203610d0157610d00610c95565b5b60018201905091905056fea2646970667358221220b422618dc9912081d008e11eea9ec497f51ef71ab48862bf21428aba6276923b64736f6c63430008130033",
  "immutableReferences": {},
  "source": "// SPDX-License-Identifier: MIT\r\npragma solidity ^0.8.19;\r\n\r\n\r\ncontract DataStorage {\r\n    struct Data {\r\n        string hashString;\r\n        bool exists;\r\n    }\r\n\r\n    mapping (uint256 => Data) private dataStore;\r\n    uint256[] private storedIds; \r\n\r\n    event DataUpdate(uint256 indexed id, string hashString);\r\n\r\n    function addOrUpdateData(uint256 id, string memory hashString) public {\r\n        if (!dataStore[id].exists) {\r\n            storedIds.push(id);\r\n        }\r\n        dataStore[id] = Data(hashString, true);\r\n        emit DataUpdate(id, hashString);\r\n    }\r\n\r\n    function getData(uint256 id) public view returns (string memory) {\r\n        require(dataStore[id].exists, \"Data not found\");\r\n        return dataStore[id].hashString;\r\n    }\r\n\r\n    function getAllData() public view returns (uint256[] memory, string[] memory) {\r\n        uint256 length = storedIds.length;\r\n        string[] memory allHashStrings = new string[](length);\r\n\r\n        for (uint256 i = 0; i < length; i++) {\r\n            allHashStrings[i] = dataStore[storedIds[i]].hashString;\r\n        }\r\n\r\n        return (storedIds, allHashStrings);\r\n    }\r\n}\r\n\r\n",
  "sourcePath": "D:\\blockchain-test\\contracts\\DataStorage.sol",
  "compiler": {
    "name": "solc",
    "version": "0.8.19+commit.7dd6d404.Emscripten.clang"
  },
  "schemaVersion": "3.4.16",
  "updatedAt": "2025-02-15T14:09:46.853Z",
  "networkType": "ethereum",
  "devdoc": {
    "kind": "dev",
    "methods": {},
    "version": 1
  },
  "userdoc": {
    "kind": "user",
    "methods": {},
    "version": 1
  }
}