{
  "contractName": "ProcessStorage",
  "abi": [
    {
      "anonymous": false,
      "inputs": [
        {
          "indexed": true,
          "internalType": "uint256",
          "name": "id",
          "type": "uint256"
        },
        {
          "indexed": false,
          "internalType": "string",
          "name": "processHash",
          "type": "string"
        }
      ],
      "name": "ProcessStored",
      "type": "event"
    },
    {
      "inputs": [
        {
          "internalType": "uint256",
          "name": "_id",
          "type": "uint256"
        },
        {
          "internalType": "string",
          "name": "_processHash",
          "type": "string"
        }
      ],
      "name": "storeProcess",
      "outputs": [],
      "stateMutability": "nonpayable",
      "type": "function"
    },
    {
      "inputs": [
        {
          "internalType": "uint256",
          "name": "_id",
          "type": "uint256"
        }
      ],
      "name": "getProcesses",
      "outputs": [
        {
          "components": [
            {
              "internalType": "uint256",
              "name": "id",
              "type": "uint256"
            },
            {
              "internalType": "string",
              "name": "processHash",
              "type": "string"
            }
          ],
          "internalType": "struct ProcessStorage.Process[]",
          "name": "",
          "type": "tuple[]"
        }
      ],
      "stateMutability": "view",
      "type": "function"
    },
    {
      "inputs": [
        {
          "internalType": "uint256",
          "name": "_id",
          "type": "uint256"
        }
      ],
      "name": "getProcessCount",
      "outputs": [
        {
          "internalType": "uint256",
          "name": "",
          "type": "uint256"
        }
      ],
      "stateMutability": "view",
      "type": "function"
    }
  ],
  "bytecode": "0x608060405234801561001057600080fd5b50610a0e806100206000396000f3fe608060405234801561001057600080fd5b50600436106100415760003560e01c8063d1b0a09014610046578063ec0fa62a14610076578063f3c5858414610092575b600080fd5b610060600480360381019061005b91906102e6565b6100c2565b60405161006d91906104b1565b60405180910390f35b610090600480360381019061008b9190610608565b6101cf565b005b6100ac60048036038101906100a791906102e6565b61027d565b6040516100b99190610673565b60405180910390f35b6060600080838152602001908152602001600020805480602002602001604051908101604052809291908181526020016000905b828210156101c4578382906000526020600020906002020160405180604001604052908160008201548152602001600182018054610133906106bd565b80601f016020809104026020016040519081016040528092919081815260200182805461015f906106bd565b80156101ac5780601f10610181576101008083540402835291602001916101ac565b820191906000526020600020905b81548152906001019060200180831161018f57829003601f168201915b505050505081525050815260200190600101906100f6565b505050509050919050565b600080838152602001908152602001600020604051806040016040528084815260200183815250908060018154018082558091505060019003906000526020600020906002020160009091909190915060008201518160000155602082015181600101908161023e919061089a565b505050817f7bbf01f8192901c157cecbef36e8c8e6d39e2296ff8bd7e4d523542592064b6b8260405161027191906109b6565b60405180910390a25050565b6000806000838152602001908152602001600020805490509050919050565b6000604051905090565b600080fd5b600080fd5b6000819050919050565b6102c3816102b0565b81146102ce57600080fd5b50565b6000813590506102e0816102ba565b92915050565b6000602082840312156102fc576102fb6102a6565b5b600061030a848285016102d1565b91505092915050565b600081519050919050565b600082825260208201905092915050565b6000819050602082019050919050565b610348816102b0565b82525050565b600081519050919050565b600082825260208201905092915050565b60005b8381101561038857808201518184015260208101905061036d565b60008484015250505050565b6000601f19601f8301169050919050565b60006103b08261034e565b6103ba8185610359565b93506103ca81856020860161036a565b6103d381610394565b840191505092915050565b60006040830160008301516103f6600086018261033f565b506020830151848203602086015261040e82826103a5565b9150508091505092915050565b600061042783836103de565b905092915050565b6000602082019050919050565b600061044782610313565b610451818561031e565b9350836020820285016104638561032f565b8060005b8581101561049f5784840389528151610480858261041b565b945061048b8361042f565b925060208a01995050600181019050610467565b50829750879550505050505092915050565b600060208201905081810360008301526104cb818461043c565b905092915050565b600080fd5b600080fd5b7f4e487b7100000000000000000000000000000000000000000000000000000000600052604160045260246000fd5b61051582610394565b810181811067ffffffffffffffff82111715610534576105336104dd565b5b80604052505050565b600061054761029c565b9050610553828261050c565b919050565b600067ffffffffffffffff821115610573576105726104dd565b5b61057c82610394565b9050602081019050919050565b82818337600083830152505050565b60006105ab6105a684610558565b61053d565b9050828152602081018484840111156105c7576105c66104d8565b5b6105d2848285610589565b509392505050565b600082601f8301126105ef576105ee6104d3565b5b81356105ff848260208601610598565b91505092915050565b6000806040838503121561061f5761061e6102a6565b5b600061062d858286016102d1565b925050602083013567ffffffffffffffff81111561064e5761064d6102ab565b5b61065a858286016105da565b9150509250929050565b61066d816102b0565b82525050565b60006020820190506106886000830184610664565b92915050565b7f4e487b7100000000000000000000000000000000000000000000000000000000600052602260045260246000fd5b600060028204905060018216806106d557607f821691505b6020821081036106e8576106e761068e565b5b50919050565b60008190508160005260206000209050919050565b60006020601f8301049050919050565b600082821b905092915050565b6000600883026107507fffffffffffffffffffffffffffffffffffffffffffffffffffffffffffffffff82610713565b61075a8683610713565b95508019841693508086168417925050509392505050565b6000819050919050565b600061079761079261078d846102b0565b610772565b6102b0565b9050919050565b6000819050919050565b6107b18361077c565b6107c56107bd8261079e565b848454610720565b825550505050565b600090565b6107da6107cd565b6107e58184846107a8565b505050565b5b81811015610809576107fe6000826107d2565b6001810190506107eb565b5050565b601f82111561084e5761081f816106ee565b61082884610703565b81016020851015610837578190505b61084b61084385610703565b8301826107ea565b50505b505050565b600082821c905092915050565b600061087160001984600802610853565b1980831691505092915050565b600061088a8383610860565b9150826002028217905092915050565b6108a38261034e565b67ffffffffffffffff8111156108bc576108bb6104dd565b5b6108c682546106bd565b6108d182828561080d565b600060209050601f83116001811461090457600084156108f2578287015190505b6108fc858261087e565b865550610964565b601f198416610912866106ee565b60005b8281101561093a57848901518255600182019150602085019450602081019050610915565b868310156109575784890151610953601f891682610860565b8355505b6001600288020188555050505b505050505050565b600082825260208201905092915050565b60006109888261034e565b610992818561096c565b93506109a281856020860161036a565b6109ab81610394565b840191505092915050565b600060208201905081810360008301526109d0818461097d565b90509291505056fea2646970667358221220d04559bb9222c86aba3cc6eec5be5dd3429c72e7898d2a1bd85c4167483f191064736f6c63430008130033",
  "immutableReferences": {},
  "source": "// SPDX-License-Identifier: MIT\r\npragma solidity ^0.8.0;\r\n\r\ncontract ProcessStorage {\r\n    struct Process {\r\n        uint256 id;\r\n        string processHash;\r\n    }\r\n    \r\n    mapping(uint256 => Process[]) private processes;\r\n    \r\n    event ProcessStored(uint256 indexed id, string processHash);\r\n    \r\n    function storeProcess(uint256 _id, string memory _processHash) public {\r\n        processes[_id].push(Process(_id, _processHash));\r\n        emit ProcessStored(_id, _processHash);\r\n    }\r\n    \r\n    function getProcesses(uint256 _id) public view returns (Process[] memory) {\r\n        return processes[_id];\r\n    }\r\n    \r\n    function getProcessCount(uint256 _id) public view returns (uint256) {\r\n        return processes[_id].length;\r\n    }\r\n}",
  "sourcePath": "D:\\final-year-pro-soli\\contracts\\ProcessStorage.sol",
  "compiler": {
    "name": "solc",
    "version": "0.8.19+commit.7dd6d404.Emscripten.clang"
  },
  "schemaVersion": "3.4.16",
  "updatedAt": "2025-03-11T05:53:25.601Z",
  "devdoc": {
    "kind": "dev",
    "methods": {},
    "version": 1
  },
  "userdoc": {
    "kind": "user",
    "methods": {},
    "version": 1
  }
}