{
  "contractName": "ProcessStorage",
  "abi": [
    {
      "anonymous": false,
      "inputs": [
        {
          "indexed": true,
          "internalType": "uint256",
          "name": "id",
          "type": "uint256"
        },
        {
          "indexed": false,
          "internalType": "string",
          "name": "processHash",
          "type": "string"
        }
      ],
      "name": "ProcessStored",
      "type": "event"
    },
    {
      "inputs": [
        {
          "internalType": "uint256",
          "name": "_id",
          "type": "uint256"
        },
        {
          "internalType": "string",
          "name": "_processHash",
          "type": "string"
        }
      ],
      "name": "storeProcess",
      "outputs": [],
      "stateMutability": "nonpayable",
      "type": "function"
    },
    {
      "inputs": [
        {
          "internalType": "uint256",
          "name": "_id",
          "type": "uint256"
        }
      ],
      "name": "getProcesses",
      "outputs": [
        {
          "components": [
            {
              "internalType": "uint256",
              "name": "id",
              "type": "uint256"
            },
            {
              "internalType": "string",
              "name": "processHash",
              "type": "string"
            }
          ],
          "internalType": "struct ProcessStorage.Process[]",
          "name": "",
          "type": "tuple[]"
        }
      ],
      "stateMutability": "view",
      "type": "function",
      "constant": true
    },
    {
      "inputs": [
        {
          "internalType": "uint256",
          "name": "_id",
          "type": "uint256"
        }
      ],
      "name": "getProcessCount",
      "outputs": [
        {
          "internalType": "uint256",
          "name": "",
          "type": "uint256"
        }
      ],
      "stateMutability": "view",
      "type": "function",
      "constant": true
    }
  ],
  "bytecode": "0x608060405234801561001057600080fd5b50610ad2806100206000396000f3fe608060405234801561001057600080fd5b50600436106100415760003560e01c8063d1b0a09014610046578063ec0fa62a14610076578063f3c5858414610092575b600080fd5b610060600480360381019061005b919061033e565b6100c2565b60405161006d9190610509565b60405180910390f35b610090600480360381019061008b9190610660565b610227565b005b6100ac60048036038101906100a7919061033e565b6102d5565b6040516100b991906106cb565b60405180910390f35b60606000806000848152602001908152602001600020805490501161011c576040517f08c379a000000000000000000000000000000000000000000000000000000000815260040161011390610743565b60405180910390fd5b600080838152602001908152602001600020805480602002602001604051908101604052809291908181526020016000905b8282101561021c57838290600052602060002090600202016040518060400160405290816000820154815260200160018201805461018b90610792565b80601f01602080910402602001604051908101604052809291908181526020018280546101b790610792565b80156102045780601f106101d957610100808354040283529160200191610204565b820191906000526020600020905b8154815290600101906020018083116101e757829003601f168201915b5050505050815250508152602001906001019061014e565b505050509050919050565b6000808381526020019081526020016000206040518060400160405280848152602001838152509080600181540180825580915050600190039060005260206000209060020201600090919091909150600082015181600001556020820151816001019081610296919061096f565b505050817f7bbf01f8192901c157cecbef36e8c8e6d39e2296ff8bd7e4d523542592064b6b826040516102c99190610a7a565b60405180910390a25050565b6000806000838152602001908152602001600020805490509050919050565b6000604051905090565b600080fd5b600080fd5b6000819050919050565b61031b81610308565b811461032657600080fd5b50565b60008135905061033881610312565b92915050565b600060208284031215610354576103536102fe565b5b600061036284828501610329565b91505092915050565b600081519050919050565b600082825260208201905092915050565b6000819050602082019050919050565b6103a081610308565b82525050565b600081519050919050565b600082825260208201905092915050565b60005b838110156103e05780820151818401526020810190506103c5565b60008484015250505050565b6000601f19601f8301169050919050565b6000610408826103a6565b61041281856103b1565b93506104228185602086016103c2565b61042b816103ec565b840191505092915050565b600060408301600083015161044e6000860182610397565b506020830151848203602086015261046682826103fd565b9150508091505092915050565b600061047f8383610436565b905092915050565b6000602082019050919050565b600061049f8261036b565b6104a98185610376565b9350836020820285016104bb85610387565b8060005b858110156104f757848403895281516104d88582610473565b94506104e383610487565b925060208a019950506001810190506104bf565b50829750879550505050505092915050565b600060208201905081810360008301526105238184610494565b905092915050565b600080fd5b600080fd5b7f4e487b7100000000000000000000000000000000000000000000000000000000600052604160045260246000fd5b61056d826103ec565b810181811067ffffffffffffffff8211171561058c5761058b610535565b5b80604052505050565b600061059f6102f4565b90506105ab8282610564565b919050565b600067ffffffffffffffff8211156105cb576105ca610535565b5b6105d4826103ec565b9050602081019050919050565b82818337600083830152505050565b60006106036105fe846105b0565b610595565b90508281526020810184848401111561061f5761061e610530565b5b61062a8482856105e1565b509392505050565b600082601f8301126106475761064661052b565b5b81356106578482602086016105f0565b91505092915050565b60008060408385031215610677576106766102fe565b5b600061068585828601610329565b925050602083013567ffffffffffffffff8111156106a6576106a5610303565b5b6106b285828601610632565b9150509250929050565b6106c581610308565b82525050565b60006020820190506106e060008301846106bc565b92915050565b600082825260208201905092915050565b7f4e6f2070726f63657373657320666f756e6420666f7220746869732049440000600082015250565b600061072d601e836106e6565b9150610738826106f7565b602082019050919050565b6000602082019050818103600083015261075c81610720565b9050919050565b7f4e487b7100000000000000000000000000000000000000000000000000000000600052602260045260246000fd5b600060028204905060018216806107aa57607f821691505b6020821081036107bd576107bc610763565b5b50919050565b60008190508160005260206000209050919050565b60006020601f8301049050919050565b600082821b905092915050565b6000600883026108257fffffffffffffffffffffffffffffffffffffffffffffffffffffffffffffffff826107e8565b61082f86836107e8565b95508019841693508086168417925050509392505050565b6000819050919050565b600061086c61086761086284610308565b610847565b610308565b9050919050565b6000819050919050565b61088683610851565b61089a61089282610873565b8484546107f5565b825550505050565b600090565b6108af6108a2565b6108ba81848461087d565b505050565b5b818110156108de576108d36000826108a7565b6001810190506108c0565b5050565b601f821115610923576108f4816107c3565b6108fd846107d8565b8101602085101561090c578190505b610920610918856107d8565b8301826108bf565b50505b505050565b600082821c905092915050565b600061094660001984600802610928565b1980831691505092915050565b600061095f8383610935565b9150826002028217905092915050565b610978826103a6565b67ffffffffffffffff81111561099157610990610535565b5b61099b8254610792565b6109a68282856108e2565b600060209050601f8311600181146109d957600084156109c7578287015190505b6109d18582610953565b865550610a39565b601f1984166109e7866107c3565b60005b82811015610a0f578489015182556001820191506020850194506020810190506109ea565b86831015610a2c5784890151610a28601f891682610935565b8355505b6001600288020188555050505b505050505050565b6000610a4c826103a6565b610a5681856106e6565b9350610a668185602086016103c2565b610a6f816103ec565b840191505092915050565b60006020820190508181036000830152610a948184610a41565b90509291505056fea26469706673582212207669971afd7505c327d82dd5aec805339697b2f0d2fcbc877eea145f581f5a2d64736f6c63430008130033",
  "immutableReferences": {},
  "source": "// SPDX-License-Identifier: MIT\r\npragma solidity ^0.8.19;\r\n\r\ncontract ProcessStorage {\r\n    struct Process {\r\n        uint256 id;\r\n        string processHash;\r\n    }\r\n\r\n    // Mapping from process ID to an array of Process records\r\n    mapping(uint256 => Process[]) private processes;\r\n\r\n    // Event for logging new process storage\r\n    event ProcessStored(uint256 indexed id, string processHash);\r\n\r\n    // Function to store a new process, even if the ID already exists\r\n    function storeProcess(uint256 _id, string memory _processHash) public {\r\n        processes[_id].push(Process(_id, _processHash));\r\n        emit ProcessStored(_id, _processHash);\r\n    }\r\n\r\n    // Function to retrieve all processes under the given ID\r\n    function getProcesses(uint256 _id) public view returns (Process[] memory) {\r\n        require(processes[_id].length > 0, \"No processes found for this ID\");\r\n        return processes[_id];\r\n    }\r\n\r\n    // Function to get the count of processes stored under a given ID\r\n    function getProcessCount(uint256 _id) public view returns (uint256) {\r\n        return processes[_id].length;\r\n    }\r\n}\r\n",
  "sourcePath": "D:\\blockchain-test\\contracts\\ProcessStorage.sol",
  "compiler": {
    "name": "solc",
    "version": "0.8.19+commit.7dd6d404.Emscripten.clang"
  },
  "schemaVersion": "3.4.16",
  "updatedAt": "2025-02-15T14:09:47.114Z",
  "networkType": "ethereum",
  "devdoc": {
    "kind": "dev",
    "methods": {},
    "version": 1
  },
  "userdoc": {
    "kind": "user",
    "methods": {},
    "version": 1
  }
}